{
  "_format": "hh-sol-artifact-1",
  "contractName": "UserRegistration",
  "sourceName": "contracts/main.sol",
  "abi": [
    {
      "anonymous": false,
      "inputs": [
        {
          "indexed": true,
          "internalType": "address",
          "name": "userAddress",
          "type": "address"
        },
        {
          "indexed": false,
          "internalType": "enum UserRegistration.Role",
          "name": "role",
          "type": "uint8"
        },
        {
          "indexed": false,
          "internalType": "string",
          "name": "username",
          "type": "string"
        }
      ],
      "name": "UserRegistered",
      "type": "event"
    },
    {
      "inputs": [
        {
          "internalType": "address",
          "name": "_userAddress",
          "type": "address"
        }
      ],
      "name": "getUserDetails",
      "outputs": [
        {
          "internalType": "enum UserRegistration.Role",
          "name": "",
          "type": "uint8"
        },
        {
          "components": [
            {
              "internalType": "string",
              "name": "username",
              "type": "string"
            },
            {
              "internalType": "string",
              "name": "medicalHistory",
              "type": "string"
            }
          ],
          "internalType": "struct UserRegistration.Patient",
          "name": "",
          "type": "tuple"
        },
        {
          "components": [
            {
              "internalType": "string",
              "name": "username",
              "type": "string"
            },
            {
              "internalType": "string",
              "name": "licenseNumber",
              "type": "string"
            },
            {
              "internalType": "string",
              "name": "location",
              "type": "string"
            }
          ],
          "internalType": "struct UserRegistration.Hospital",
          "name": "",
          "type": "tuple"
        },
        {
          "components": [
            {
              "internalType": "string",
              "name": "username",
              "type": "string"
            },
            {
              "internalType": "string",
              "name": "licenseNumber",
              "type": "string"
            },
            {
              "internalType": "string",
              "name": "postalAddress",
              "type": "string"
            }
          ],
          "internalType": "struct UserRegistration.Pharmacy",
          "name": "",
          "type": "tuple"
        },
        {
          "components": [
            {
              "internalType": "string",
              "name": "username",
              "type": "string"
            },
            {
              "internalType": "string",
              "name": "companyName",
              "type": "string"
            },
            {
              "internalType": "string",
              "name": "contactInfo",
              "type": "string"
            }
          ],
          "internalType": "struct UserRegistration.Supplier",
          "name": "",
          "type": "tuple"
        }
      ],
      "stateMutability": "view",
      "type": "function"
    },
    {
      "inputs": [
        {
          "internalType": "address",
          "name": "",
          "type": "address"
        }
      ],
      "name": "hospitals",
      "outputs": [
        {
          "internalType": "string",
          "name": "username",
          "type": "string"
        },
        {
          "internalType": "string",
          "name": "licenseNumber",
          "type": "string"
        },
        {
          "internalType": "string",
          "name": "location",
          "type": "string"
        }
      ],
      "stateMutability": "view",
      "type": "function"
    },
    {
      "inputs": [
        {
          "internalType": "address",
          "name": "",
          "type": "address"
        }
      ],
      "name": "patients",
      "outputs": [
        {
          "internalType": "string",
          "name": "username",
          "type": "string"
        },
        {
          "internalType": "string",
          "name": "medicalHistory",
          "type": "string"
        }
      ],
      "stateMutability": "view",
      "type": "function"
    },
    {
      "inputs": [
        {
          "internalType": "address",
          "name": "",
          "type": "address"
        }
      ],
      "name": "pharmacies",
      "outputs": [
        {
          "internalType": "string",
          "name": "username",
          "type": "string"
        },
        {
          "internalType": "string",
          "name": "licenseNumber",
          "type": "string"
        },
        {
          "internalType": "string",
          "name": "postalAddress",
          "type": "string"
        }
      ],
      "stateMutability": "view",
      "type": "function"
    },
    {
      "inputs": [
        {
          "internalType": "string",
          "name": "_username",
          "type": "string"
        },
        {
          "internalType": "string",
          "name": "_licenseNumber",
          "type": "string"
        },
        {
          "internalType": "string",
          "name": "_location",
          "type": "string"
        }
      ],
      "name": "registerHospital",
      "outputs": [],
      "stateMutability": "nonpayable",
      "type": "function"
    },
    {
      "inputs": [
        {
          "internalType": "string",
          "name": "_username",
          "type": "string"
        },
        {
          "internalType": "string",
          "name": "_medicalHistory",
          "type": "string"
        }
      ],
      "name": "registerPatient",
      "outputs": [],
      "stateMutability": "nonpayable",
      "type": "function"
    },
    {
      "inputs": [
        {
          "internalType": "string",
          "name": "_username",
          "type": "string"
        },
        {
          "internalType": "string",
          "name": "_licenseNumber",
          "type": "string"
        },
        {
          "internalType": "string",
          "name": "_postalAddress",
          "type": "string"
        }
      ],
      "name": "registerPharmacy",
      "outputs": [],
      "stateMutability": "nonpayable",
      "type": "function"
    },
    {
      "inputs": [
        {
          "internalType": "string",
          "name": "_username",
          "type": "string"
        },
        {
          "internalType": "string",
          "name": "_companyName",
          "type": "string"
        },
        {
          "internalType": "string",
          "name": "_contactInfo",
          "type": "string"
        }
      ],
      "name": "registerSupplier",
      "outputs": [],
      "stateMutability": "nonpayable",
      "type": "function"
    },
    {
      "inputs": [
        {
          "internalType": "address",
          "name": "",
          "type": "address"
        }
      ],
      "name": "suppliers",
      "outputs": [
        {
          "internalType": "string",
          "name": "username",
          "type": "string"
        },
        {
          "internalType": "string",
          "name": "companyName",
          "type": "string"
        },
        {
          "internalType": "string",
          "name": "contactInfo",
          "type": "string"
        }
      ],
      "stateMutability": "view",
      "type": "function"
    },
    {
      "inputs": [
        {
          "internalType": "address",
          "name": "",
          "type": "address"
        }
      ],
      "name": "userRoles",
      "outputs": [
        {
          "internalType": "enum UserRegistration.Role",
          "name": "",
          "type": "uint8"
        }
      ],
      "stateMutability": "view",
      "type": "function"
    }
  ],
  "bytecode": "0x608060405234801561001057600080fd5b50612470806100206000396000f3fe608060405234801561001057600080fd5b506004361061009e5760003560e01c806380911fa41161006657806380911fa414610184578063a1c2e79c146101a0578063cc3d967b146101bc578063cd8dc7d4146101f0578063f093cf801461020c5761009e565b80630869cfbc146100a357806316dc15fe146100d4578063526b44ac1461010657806374d5e1001461012257806376fe883014610152575b600080fd5b6100bd60048036038101906100b89190611935565b61023e565b6040516100cb9291906119f2565b60405180910390f35b6100ee60048036038101906100e99190611935565b610372565b6040516100fd93929190611a29565b60405180910390f35b610120600480360381019061011b9190611baa565b610534565b005b61013c60048036038101906101379190611935565b610718565b6040516101499190611cc8565b60405180910390f35b61016c60048036038101906101679190611935565b610738565b60405161017b93929190611a29565b60405180910390f35b61019e60048036038101906101999190611ce3565b6108fa565b005b6101ba60048036038101906101b59190611baa565b610a7d565b005b6101d660048036038101906101d19190611935565b610c61565b6040516101e7959493929190611f03565b60405180910390f35b61020a60048036038101906102059190611baa565b61145c565b005b61022660048036038101906102219190611935565b611684565b60405161023593929190611a29565b60405180910390f35b600160205280600052604060002060009150905080600001805461026190611fa1565b80601f016020809104026020016040519081016040528092919081815260200182805461028d90611fa1565b80156102da5780601f106102af576101008083540402835291602001916102da565b820191906000526020600020905b8154815290600101906020018083116102bd57829003601f168201915b5050505050908060010180546102ef90611fa1565b80601f016020809104026020016040519081016040528092919081815260200182805461031b90611fa1565b80156103685780601f1061033d57610100808354040283529160200191610368565b820191906000526020600020905b81548152906001019060200180831161034b57829003601f168201915b5050505050905082565b600460205280600052604060002060009150905080600001805461039590611fa1565b80601f01602080910402602001604051908101604052809291908181526020018280546103c190611fa1565b801561040e5780601f106103e35761010080835404028352916020019161040e565b820191906000526020600020905b8154815290600101906020018083116103f157829003601f168201915b50505050509080600101805461042390611fa1565b80601f016020809104026020016040519081016040528092919081815260200182805461044f90611fa1565b801561049c5780601f106104715761010080835404028352916020019161049c565b820191906000526020600020905b81548152906001019060200180831161047f57829003601f168201915b5050505050908060020180546104b190611fa1565b80601f01602080910402602001604051908101604052809291908181526020018280546104dd90611fa1565b801561052a5780601f106104ff5761010080835404028352916020019161052a565b820191906000526020600020905b81548152906001019060200180831161050d57829003601f168201915b5050505050905083565b6000835111610578576040517f08c379a000000000000000000000000000000000000000000000000000000000815260040161056f9061201e565b60405180910390fd5b60008251116105bc576040517f08c379a00000000000000000000000000000000000000000000000000000000081526004016105b39061208a565b60405180910390fd5b604051806060016040528084815260200183815260200182815250600260003373ffffffffffffffffffffffffffffffffffffffff1673ffffffffffffffffffffffffffffffffffffffff168152602001908152602001600020600082015181600001908161062b9190612260565b5060208201518160010190816106419190612260565b5060408201518160020190816106579190612260565b5090505060016000803373ffffffffffffffffffffffffffffffffffffffff1673ffffffffffffffffffffffffffffffffffffffff16815260200190815260200160002060006101000a81548160ff021916908360038111156106bd576106bc611c51565b5b02179055503373ffffffffffffffffffffffffffffffffffffffff167f04221ffa167b8d0a33647e46ee4f6728f4fe3651e4d56715ed0941b12046147b60018560405161070b929190612332565b60405180910390a2505050565b60006020528060005260406000206000915054906101000a900460ff1681565b600360205280600052604060002060009150905080600001805461075b90611fa1565b80601f016020809104026020016040519081016040528092919081815260200182805461078790611fa1565b80156107d45780601f106107a9576101008083540402835291602001916107d4565b820191906000526020600020905b8154815290600101906020018083116107b757829003601f168201915b5050505050908060010180546107e990611fa1565b80601f016020809104026020016040519081016040528092919081815260200182805461081590611fa1565b80156108625780601f1061083757610100808354040283529160200191610862565b820191906000526020600020905b81548152906001019060200180831161084557829003601f168201915b50505050509080600201805461087790611fa1565b80601f01602080910402602001604051908101604052809291908181526020018280546108a390611fa1565b80156108f05780601f106108c5576101008083540402835291602001916108f0565b820191906000526020600020905b8154815290600101906020018083116108d357829003601f168201915b5050505050905083565b600082511161093e576040517f08c379a00000000000000000000000000000000000000000000000000000000081526004016109359061201e565b60405180910390fd5b604051806040016040528083815260200182815250600160003373ffffffffffffffffffffffffffffffffffffffff1673ffffffffffffffffffffffffffffffffffffffff16815260200190815260200160002060008201518160000190816109a79190612260565b5060208201518160010190816109bd9190612260565b5090505060008060003373ffffffffffffffffffffffffffffffffffffffff1673ffffffffffffffffffffffffffffffffffffffff16815260200190815260200160002060006101000a81548160ff02191690836003811115610a2357610a22611c51565b5b02179055503373ffffffffffffffffffffffffffffffffffffffff167f04221ffa167b8d0a33647e46ee4f6728f4fe3651e4d56715ed0941b12046147b600084604051610a71929190612332565b60405180910390a25050565b6000835111610ac1576040517f08c379a0000000000000000000000000000000000000000000000000000000008152600401610ab89061201e565b60405180910390fd5b6000825111610b05576040517f08c379a0000000000000000000000000000000000000000000000000000000008152600401610afc906123ae565b60405180910390fd5b604051806060016040528084815260200183815260200182815250600460003373ffffffffffffffffffffffffffffffffffffffff1673ffffffffffffffffffffffffffffffffffffffff1681526020019081526020016000206000820151816000019081610b749190612260565b506020820151816001019081610b8a9190612260565b506040820151816002019081610ba09190612260565b5090505060036000803373ffffffffffffffffffffffffffffffffffffffff1673ffffffffffffffffffffffffffffffffffffffff16815260200190815260200160002060006101000a81548160ff02191690836003811115610c0657610c05611c51565b5b02179055503373ffffffffffffffffffffffffffffffffffffffff167f04221ffa167b8d0a33647e46ee4f6728f4fe3651e4d56715ed0941b12046147b600385604051610c54929190612332565b60405180910390a2505050565b6000610c6b611846565b610c73611860565b610c7b611881565b610c836118a2565b6000808773ffffffffffffffffffffffffffffffffffffffff1673ffffffffffffffffffffffffffffffffffffffff16815260200190815260200160002060009054906101000a900460ff16600160008873ffffffffffffffffffffffffffffffffffffffff1673ffffffffffffffffffffffffffffffffffffffff168152602001908152602001600020600260008973ffffffffffffffffffffffffffffffffffffffff1673ffffffffffffffffffffffffffffffffffffffff168152602001908152602001600020600360008a73ffffffffffffffffffffffffffffffffffffffff1673ffffffffffffffffffffffffffffffffffffffff168152602001908152602001600020600460008b73ffffffffffffffffffffffffffffffffffffffff1673ffffffffffffffffffffffffffffffffffffffff16815260200190815260200160002083604051806040016040529081600082018054610de790611fa1565b80601f0160208091040260200160405190810160405280929190818152602001828054610e1390611fa1565b8015610e605780601f10610e3557610100808354040283529160200191610e60565b820191906000526020600020905b815481529060010190602001808311610e4357829003601f168201915b50505050508152602001600182018054610e7990611fa1565b80601f0160208091040260200160405190810160405280929190818152602001828054610ea590611fa1565b8015610ef25780601f10610ec757610100808354040283529160200191610ef2565b820191906000526020600020905b815481529060010190602001808311610ed557829003601f168201915b505050505081525050935082604051806060016040529081600082018054610f1990611fa1565b80601f0160208091040260200160405190810160405280929190818152602001828054610f4590611fa1565b8015610f925780601f10610f6757610100808354040283529160200191610f92565b820191906000526020600020905b815481529060010190602001808311610f7557829003601f168201915b50505050508152602001600182018054610fab90611fa1565b80601f0160208091040260200160405190810160405280929190818152602001828054610fd790611fa1565b80156110245780601f10610ff957610100808354040283529160200191611024565b820191906000526020600020905b81548152906001019060200180831161100757829003601f168201915b5050505050815260200160028201805461103d90611fa1565b80601f016020809104026020016040519081016040528092919081815260200182805461106990611fa1565b80156110b65780601f1061108b576101008083540402835291602001916110b6565b820191906000526020600020905b81548152906001019060200180831161109957829003601f168201915b5050505050815250509250816040518060600160405290816000820180546110dd90611fa1565b80601f016020809104026020016040519081016040528092919081815260200182805461110990611fa1565b80156111565780601f1061112b57610100808354040283529160200191611156565b820191906000526020600020905b81548152906001019060200180831161113957829003601f168201915b5050505050815260200160018201805461116f90611fa1565b80601f016020809104026020016040519081016040528092919081815260200182805461119b90611fa1565b80156111e85780601f106111bd576101008083540402835291602001916111e8565b820191906000526020600020905b8154815290600101906020018083116111cb57829003601f168201915b5050505050815260200160028201805461120190611fa1565b80601f016020809104026020016040519081016040528092919081815260200182805461122d90611fa1565b801561127a5780601f1061124f5761010080835404028352916020019161127a565b820191906000526020600020905b81548152906001019060200180831161125d57829003601f168201915b5050505050815250509150806040518060600160405290816000820180546112a190611fa1565b80601f01602080910402602001604051908101604052809291908181526020018280546112cd90611fa1565b801561131a5780601f106112ef5761010080835404028352916020019161131a565b820191906000526020600020905b8154815290600101906020018083116112fd57829003601f168201915b5050505050815260200160018201805461133390611fa1565b80601f016020809104026020016040519081016040528092919081815260200182805461135f90611fa1565b80156113ac5780601f10611381576101008083540402835291602001916113ac565b820191906000526020600020905b81548152906001019060200180831161138f57829003601f168201915b505050505081526020016002820180546113c590611fa1565b80601f01602080910402602001604051908101604052809291908181526020018280546113f190611fa1565b801561143e5780601f106114135761010080835404028352916020019161143e565b820191906000526020600020905b81548152906001019060200180831161142157829003601f168201915b50505050508152505090509450945094509450945091939590929450565b60008351116114a0576040517f08c379a00000000000000000000000000000000000000000000000000000000081526004016114979061201e565b60405180910390fd5b60008251116114e4576040517f08c379a00000000000000000000000000000000000000000000000000000000081526004016114db9061208a565b60405180910390fd5b6000815111611528576040517f08c379a000000000000000000000000000000000000000000000000000000000815260040161151f9061241a565b60405180910390fd5b604051806060016040528084815260200183815260200182815250600360003373ffffffffffffffffffffffffffffffffffffffff1673ffffffffffffffffffffffffffffffffffffffff16815260200190815260200160002060008201518160000190816115979190612260565b5060208201518160010190816115ad9190612260565b5060408201518160020190816115c39190612260565b5090505060026000803373ffffffffffffffffffffffffffffffffffffffff1673ffffffffffffffffffffffffffffffffffffffff16815260200190815260200160002060006101000a81548160ff0219169083600381111561162957611628611c51565b5b02179055503373ffffffffffffffffffffffffffffffffffffffff167f04221ffa167b8d0a33647e46ee4f6728f4fe3651e4d56715ed0941b12046147b600285604051611677929190612332565b60405180910390a2505050565b60026020528060005260406000206000915090508060000180546116a790611fa1565b80601f01602080910402602001604051908101604052809291908181526020018280546116d390611fa1565b80156117205780601f106116f557610100808354040283529160200191611720565b820191906000526020600020905b81548152906001019060200180831161170357829003601f168201915b50505050509080600101805461173590611fa1565b80601f016020809104026020016040519081016040528092919081815260200182805461176190611fa1565b80156117ae5780601f10611783576101008083540402835291602001916117ae565b820191906000526020600020905b81548152906001019060200180831161179157829003601f168201915b5050505050908060020180546117c390611fa1565b80601f01602080910402602001604051908101604052809291908181526020018280546117ef90611fa1565b801561183c5780601f106118115761010080835404028352916020019161183c565b820191906000526020600020905b81548152906001019060200180831161181f57829003601f168201915b5050505050905083565b604051806040016040528060608152602001606081525090565b60405180606001604052806060815260200160608152602001606081525090565b60405180606001604052806060815260200160608152602001606081525090565b60405180606001604052806060815260200160608152602001606081525090565b6000604051905090565b600080fd5b600080fd5b600073ffffffffffffffffffffffffffffffffffffffff82169050919050565b6000611902826118d7565b9050919050565b611912816118f7565b811461191d57600080fd5b50565b60008135905061192f81611909565b92915050565b60006020828403121561194b5761194a6118cd565b5b600061195984828501611920565b91505092915050565b600081519050919050565b600082825260208201905092915050565b60005b8381101561199c578082015181840152602081019050611981565b60008484015250505050565b6000601f19601f8301169050919050565b60006119c482611962565b6119ce818561196d565b93506119de81856020860161197e565b6119e7816119a8565b840191505092915050565b60006040820190508181036000830152611a0c81856119b9565b90508181036020830152611a2081846119b9565b90509392505050565b60006060820190508181036000830152611a4381866119b9565b90508181036020830152611a5781856119b9565b90508181036040830152611a6b81846119b9565b9050949350505050565b600080fd5b600080fd5b7f4e487b7100000000000000000000000000000000000000000000000000000000600052604160045260246000fd5b611ab7826119a8565b810181811067ffffffffffffffff82111715611ad657611ad5611a7f565b5b80604052505050565b6000611ae96118c3565b9050611af58282611aae565b919050565b600067ffffffffffffffff821115611b1557611b14611a7f565b5b611b1e826119a8565b9050602081019050919050565b82818337600083830152505050565b6000611b4d611b4884611afa565b611adf565b905082815260208101848484011115611b6957611b68611a7a565b5b611b74848285611b2b565b509392505050565b600082601f830112611b9157611b90611a75565b5b8135611ba1848260208601611b3a565b91505092915050565b600080600060608486031215611bc357611bc26118cd565b5b600084013567ffffffffffffffff811115611be157611be06118d2565b5b611bed86828701611b7c565b935050602084013567ffffffffffffffff811115611c0e57611c0d6118d2565b5b611c1a86828701611b7c565b925050604084013567ffffffffffffffff811115611c3b57611c3a6118d2565b5b611c4786828701611b7c565b9150509250925092565b7f4e487b7100000000000000000000000000000000000000000000000000000000600052602160045260246000fd5b60048110611c9157611c90611c51565b5b50565b6000819050611ca282611c80565b919050565b6000611cb282611c94565b9050919050565b611cc281611ca7565b82525050565b6000602082019050611cdd6000830184611cb9565b92915050565b60008060408385031215611cfa57611cf96118cd565b5b600083013567ffffffffffffffff811115611d1857611d176118d2565b5b611d2485828601611b7c565b925050602083013567ffffffffffffffff811115611d4557611d446118d2565b5b611d5185828601611b7c565b9150509250929050565b600082825260208201905092915050565b6000611d7782611962565b611d818185611d5b565b9350611d9181856020860161197e565b611d9a816119a8565b840191505092915050565b60006040830160008301518482036000860152611dc28282611d6c565b91505060208301518482036020860152611ddc8282611d6c565b9150508091505092915050565b60006060830160008301518482036000860152611e068282611d6c565b91505060208301518482036020860152611e208282611d6c565b91505060408301518482036040860152611e3a8282611d6c565b9150508091505092915050565b60006060830160008301518482036000860152611e648282611d6c565b91505060208301518482036020860152611e7e8282611d6c565b91505060408301518482036040860152611e988282611d6c565b9150508091505092915050565b60006060830160008301518482036000860152611ec28282611d6c565b91505060208301518482036020860152611edc8282611d6c565b91505060408301518482036040860152611ef68282611d6c565b9150508091505092915050565b600060a082019050611f186000830188611cb9565b8181036020830152611f2a8187611da5565b90508181036040830152611f3e8186611de9565b90508181036060830152611f528185611e47565b90508181036080830152611f668184611ea5565b90509695505050505050565b7f4e487b7100000000000000000000000000000000000000000000000000000000600052602260045260246000fd5b60006002820490506001821680611fb957607f821691505b602082108103611fcc57611fcb611f72565b5b50919050565b7f557365726e616d65206d7573742062652070726f766964656400000000000000600082015250565b600061200860198361196d565b915061201382611fd2565b602082019050919050565b6000602082019050818103600083015261203781611ffb565b9050919050565b7f4c6963656e7365206e756d626572206d7573742062652070726f766964656400600082015250565b6000612074601f8361196d565b915061207f8261203e565b602082019050919050565b600060208201905081810360008301526120a381612067565b9050919050565b60008190508160005260206000209050919050565b60006020601f8301049050919050565b600082821b905092915050565b60006008830261210c7fffffffffffffffffffffffffffffffffffffffffffffffffffffffffffffffff826120cf565b61211686836120cf565b95508019841693508086168417925050509392505050565b6000819050919050565b6000819050919050565b600061215d6121586121538461212e565b612138565b61212e565b9050919050565b6000819050919050565b61217783612142565b61218b61218382612164565b8484546120dc565b825550505050565b600090565b6121a0612193565b6121ab81848461216e565b505050565b5b818110156121cf576121c4600082612198565b6001810190506121b1565b5050565b601f821115612214576121e5816120aa565b6121ee846120bf565b810160208510156121fd578190505b612211612209856120bf565b8301826121b0565b50505b505050565b600082821c905092915050565b600061223760001984600802612219565b1980831691505092915050565b60006122508383612226565b9150826002028217905092915050565b61226982611962565b67ffffffffffffffff81111561228257612281611a7f565b5b61228c8254611fa1565b6122978282856121d3565b600060209050601f8311600181146122ca57600084156122b8578287015190505b6122c28582612244565b86555061232a565b601f1984166122d8866120aa565b60005b82811015612300578489015182556001820191506020850194506020810190506122db565b8683101561231d5784890151612319601f891682612226565b8355505b6001600288020188555050505b505050505050565b60006040820190506123476000830185611cb9565b818103602083015261235981846119b9565b90509392505050565b7f436f6d70616e79206e616d65206d7573742062652070726f7669646564000000600082015250565b6000612398601d8361196d565b91506123a382612362565b602082019050919050565b600060208201905081810360008301526123c78161238b565b9050919050565b7f41646472657373206d7573742062652070726f76696465640000000000000000600082015250565b600061240460188361196d565b915061240f826123ce565b602082019050919050565b60006020820190508181036000830152612433816123f7565b905091905056fea26469706673582212209d326c90efd5b4def079afcb4252f6c45c7447f4dea7c83adf8513cee68bac2064736f6c63430008180033",
  "linkReferences": {},
  "deployedLinkReferences": {}
}