{
  "_format": "hh-sol-artifact-1",
  "contractName": "HealthcareSystem",
  "sourceName": "contracts/contacts.sol",
  "abi": [
    {
      "inputs": [],
      "name": "PHARMACY_MARKUP_PERCENTAGE",
      "outputs": [
        {
          "internalType": "uint256",
          "name": "",
          "type": "uint256"
        }
      ],
      "stateMutability": "view",
      "type": "function"
    },
    {
      "inputs": [
        {
          "internalType": "string",
          "name": "_name",
          "type": "string"
        },
        {
          "internalType": "uint256",
          "name": "_price",
          "type": "uint256"
        },
        {
          "internalType": "uint256",
          "name": "_quantity",
          "type": "uint256"
        }
      ],
      "name": "addMedicine",
      "outputs": [],
      "stateMutability": "nonpayable",
      "type": "function"
    },
    {
      "inputs": [
        {
          "internalType": "address",
          "name": "_pharmacyAddress",
          "type": "address"
        },
        {
          "internalType": "uint256",
          "name": "_medicineId",
          "type": "uint256"
        },
        {
          "internalType": "uint256",
          "name": "_quantity",
          "type": "uint256"
        }
      ],
      "name": "buyFromPharmacy",
      "outputs": [],
      "stateMutability": "payable",
      "type": "function"
    },
    {
      "inputs": [],
      "name": "getHealthRecords",
      "outputs": [
        {
          "internalType": "string",
          "name": "",
          "type": "string"
        }
      ],
      "stateMutability": "view",
      "type": "function"
    },
    {
      "inputs": [
        {
          "internalType": "uint256",
          "name": "_id",
          "type": "uint256"
        }
      ],
      "name": "getMedicineDetails",
      "outputs": [
        {
          "internalType": "string",
          "name": "",
          "type": "string"
        },
        {
          "internalType": "uint256",
          "name": "",
          "type": "uint256"
        },
        {
          "internalType": "uint256",
          "name": "",
          "type": "uint256"
        }
      ],
      "stateMutability": "view",
      "type": "function"
    },
    {
      "inputs": [],
      "name": "getPatientPrescriptions",
      "outputs": [
        {
          "internalType": "uint256[]",
          "name": "",
          "type": "uint256[]"
        }
      ],
      "stateMutability": "view",
      "type": "function"
    },
    {
      "inputs": [
        {
          "internalType": "address",
          "name": "",
          "type": "address"
        }
      ],
      "name": "hospitalOrderCount",
      "outputs": [
        {
          "internalType": "uint256",
          "name": "",
          "type": "uint256"
        }
      ],
      "stateMutability": "view",
      "type": "function"
    },
    {
      "inputs": [],
      "name": "maxHospitalOrders",
      "outputs": [
        {
          "internalType": "uint256",
          "name": "",
          "type": "uint256"
        }
      ],
      "stateMutability": "view",
      "type": "function"
    },
    {
      "inputs": [],
      "name": "medicineIdCounter",
      "outputs": [
        {
          "internalType": "uint256",
          "name": "",
          "type": "uint256"
        }
      ],
      "stateMutability": "view",
      "type": "function"
    },
    {
      "inputs": [
        {
          "internalType": "address",
          "name": "_supplierAddress",
          "type": "address"
        },
        {
          "internalType": "uint256",
          "name": "_medicineId",
          "type": "uint256"
        },
        {
          "internalType": "uint256",
          "name": "_quantity",
          "type": "uint256"
        }
      ],
      "name": "orderFromSupplier",
      "outputs": [],
      "stateMutability": "nonpayable",
      "type": "function"
    },
    {
      "inputs": [
        {
          "internalType": "address",
          "name": "",
          "type": "address"
        }
      ],
      "name": "patients",
      "outputs": [
        {
          "internalType": "string",
          "name": "healthRecords",
          "type": "string"
        }
      ],
      "stateMutability": "view",
      "type": "function"
    },
    {
      "inputs": [
        {
          "internalType": "address",
          "name": "",
          "type": "address"
        },
        {
          "internalType": "uint256",
          "name": "",
          "type": "uint256"
        }
      ],
      "name": "pharmacyInventories",
      "outputs": [
        {
          "internalType": "uint256",
          "name": "id",
          "type": "uint256"
        },
        {
          "internalType": "string",
          "name": "name",
          "type": "string"
        },
        {
          "internalType": "uint256",
          "name": "price",
          "type": "uint256"
        },
        {
          "internalType": "uint256",
          "name": "quantity",
          "type": "uint256"
        }
      ],
      "stateMutability": "view",
      "type": "function"
    },
    {
      "inputs": [
        {
          "internalType": "string",
          "name": "_name",
          "type": "string"
        },
        {
          "internalType": "enum HealthcareSystem.UserType",
          "name": "_userType",
          "type": "uint8"
        }
      ],
      "name": "registerUser",
      "outputs": [],
      "stateMutability": "nonpayable",
      "type": "function"
    },
    {
      "inputs": [
        {
          "internalType": "uint256",
          "name": "_maxOrders",
          "type": "uint256"
        }
      ],
      "name": "setMaxHospitalOrders",
      "outputs": [],
      "stateMutability": "nonpayable",
      "type": "function"
    },
    {
      "inputs": [
        {
          "internalType": "address",
          "name": "",
          "type": "address"
        },
        {
          "internalType": "uint256",
          "name": "",
          "type": "uint256"
        }
      ],
      "name": "supplierInventories",
      "outputs": [
        {
          "internalType": "uint256",
          "name": "id",
          "type": "uint256"
        },
        {
          "internalType": "string",
          "name": "name",
          "type": "string"
        },
        {
          "internalType": "uint256",
          "name": "price",
          "type": "uint256"
        },
        {
          "internalType": "uint256",
          "name": "quantity",
          "type": "uint256"
        }
      ],
      "stateMutability": "view",
      "type": "function"
    },
    {
      "inputs": [
        {
          "internalType": "string",
          "name": "_records",
          "type": "string"
        }
      ],
      "name": "updateHealthRecords",
      "outputs": [],
      "stateMutability": "nonpayable",
      "type": "function"
    },
    {
      "inputs": [
        {
          "internalType": "uint256",
          "name": "_id",
          "type": "uint256"
        },
        {
          "internalType": "uint256",
          "name": "_price",
          "type": "uint256"
        },
        {
          "internalType": "uint256",
          "name": "_quantity",
          "type": "uint256"
        }
      ],
      "name": "updateMedicineDetails",
      "outputs": [],
      "stateMutability": "nonpayable",
      "type": "function"
    },
    {
      "inputs": [
        {
          "internalType": "string",
          "name": "_name",
          "type": "string"
        }
      ],
      "name": "updateUserDetails",
      "outputs": [],
      "stateMutability": "nonpayable",
      "type": "function"
    },
    {
      "inputs": [],
      "name": "userIdCounter",
      "outputs": [
        {
          "internalType": "uint256",
          "name": "",
          "type": "uint256"
        }
      ],
      "stateMutability": "view",
      "type": "function"
    },
    {
      "inputs": [
        {
          "internalType": "address",
          "name": "",
          "type": "address"
        }
      ],
      "name": "users",
      "outputs": [
        {
          "internalType": "address",
          "name": "userAddress",
          "type": "address"
        },
        {
          "internalType": "string",
          "name": "name",
          "type": "string"
        },
        {
          "internalType": "enum HealthcareSystem.UserType",
          "name": "userType",
          "type": "uint8"
        },
        {
          "internalType": "uint256",
          "name": "id",
          "type": "uint256"
        }
      ],
      "stateMutability": "view",
      "type": "function"
    }
  ],
  "bytecode": "0x608060405234801561001057600080fd5b50613681806100206000396000f3fe60806040526004361061011f5760003560e01c80639d7eb375116100a0578063e508c95711610064578063e508c95714610407578063f4080e6014610430578063f57608861461045b578063fddf1f1b14610484578063fe054566146104af5761011f565b80639d7eb3751461031f578063a3efe0bd14610348578063a5564ec014610371578063a87430ba1461039c578063d7d62acb146103dc5761011f565b8063807c66f5116100e7578063807c66f5146102345780638add7c771461025d5780638d70916b1461029d57806390d41457146102da57806394fcf0b3146103035761011f565b80630869cfbc146101245780632f5f957c146101615780632faba6ae146101a0578063338e12eb146101cb578063660dc75f146101f4575b600080fd5b34801561013057600080fd5b5061014b60048036038101906101469190612363565b6104da565b6040516101589190612420565b60405180910390f35b34801561016d57600080fd5b5061018860048036038101906101839190612478565b610580565b604051610197939291906124b4565b60405180910390f35b3480156101ac57600080fd5b506101b5610984565b6040516101c291906124f2565b60405180910390f35b3480156101d757600080fd5b506101f260048036038101906101ed9190612667565b61098a565b005b34801561020057600080fd5b5061021b600480360381019061021691906126c3565b610ca8565b60405161022b9493929190612703565b60405180910390f35b34801561024057600080fd5b5061025b60048036038101906102569190612478565b610d7d565b005b34801561026957600080fd5b50610284600480360381019061027f91906126c3565b610df5565b6040516102949493929190612703565b60405180910390f35b3480156102a957600080fd5b506102c460048036038101906102bf9190612363565b610eca565b6040516102d191906124f2565b60405180910390f35b3480156102e657600080fd5b5061030160048036038101906102fc919061274f565b610ee2565b005b61031d60048036038101906103189190612798565b610fea565b005b34801561032b57600080fd5b506103466004803603810190610341919061274f565b6112ed565b005b34801561035457600080fd5b5061036f600480360381019061036a91906127eb565b61140f565b005b34801561037d57600080fd5b506103866115ab565b60405161039391906128fc565b60405180910390f35b3480156103a857600080fd5b506103c360048036038101906103be9190612363565b6116f8565b6040516103d394939291906129a4565b60405180910390f35b3480156103e857600080fd5b506103f16117dd565b6040516103fe91906124f2565b60405180910390f35b34801561041357600080fd5b5061042e600480360381019061042991906129f0565b6117e2565b005b34801561043c57600080fd5b5061044561197a565b6040516104529190612420565b60405180910390f35b34801561046757600080fd5b50610482600480360381019061047d9190612798565b611b01565b005b34801561049057600080fd5b5061049961227b565b6040516104a691906124f2565b60405180910390f35b3480156104bb57600080fd5b506104c4612281565b6040516104d191906124f2565b60405180910390f35b60016020528060005260406000206000915090508060000180546104fd90612a8e565b80601f016020809104026020016040519081016040528092919081815260200182805461052990612a8e565b80156105765780601f1061054b57610100808354040283529160200191610576565b820191906000526020600020905b81548152906001019060200180831161055957829003601f168201915b5050505050905081565b60606000806003808111156105985761059761292d565b5b6000803373ffffffffffffffffffffffffffffffffffffffff1673ffffffffffffffffffffffffffffffffffffffff16815260200190815260200160002060020160009054906101000a900460ff1660038111156105f9576105f861292d565b5b14806106775750600060038111156106145761061361292d565b5b6000803373ffffffffffffffffffffffffffffffffffffffff1673ffffffffffffffffffffffffffffffffffffffff16815260200190815260200160002060020160009054906101000a900460ff1660038111156106755761067461292d565b5b145b806106f45750600260038111156106915761069061292d565b5b6000803373ffffffffffffffffffffffffffffffffffffffff1673ffffffffffffffffffffffffffffffffffffffff16815260200190815260200160002060020160009054906101000a900460ff1660038111156106f2576106f161292d565b5b145b8061077157506001600381111561070e5761070d61292d565b5b6000803373ffffffffffffffffffffffffffffffffffffffff1673ffffffffffffffffffffffffffffffffffffffff16815260200190815260200160002060020160009054906101000a900460ff16600381111561076f5761076e61292d565b5b145b6107b0576040517f08c379a00000000000000000000000000000000000000000000000000000000081526004016107a790612b31565b60405180910390fd5b6000600260003373ffffffffffffffffffffffffffffffffffffffff1673ffffffffffffffffffffffffffffffffffffffff168152602001908152602001600020905060005b8180549050811015610941578582828154811061081657610815612b51565b5b90600052602060002090600402016000015403610934578181815481106108405761083f612b51565b5b906000526020600020906004020160010182828154811061086457610863612b51565b5b90600052602060002090600402016002015483838154811061088957610888612b51565b5b9060005260206000209060040201600301548280546108a790612a8e565b80601f01602080910402602001604051908101604052809291908181526020018280546108d390612a8e565b80156109205780601f106108f557610100808354040283529160200191610920565b820191906000526020600020905b81548152906001019060200180831161090357829003601f168201915b50505050509250945094509450505061097d565b80806001019150506107f6565b506040517f08c379a000000000000000000000000000000000000000000000000000000000815260040161097490612bcc565b60405180910390fd5b9193909250565b60045481565b600073ffffffffffffffffffffffffffffffffffffffff166000803373ffffffffffffffffffffffffffffffffffffffff1673ffffffffffffffffffffffffffffffffffffffff16815260200190815260200160002060000160009054906101000a900473ffffffffffffffffffffffffffffffffffffffff1673ffffffffffffffffffffffffffffffffffffffff1614610a5a576040517f08c379a0000000000000000000000000000000000000000000000000000000008152600401610a5190612c38565b60405180910390fd5b60405180608001604052803373ffffffffffffffffffffffffffffffffffffffff168152602001838152602001826003811115610a9a57610a9961292d565b5b81526020016004548152506000803373ffffffffffffffffffffffffffffffffffffffff1673ffffffffffffffffffffffffffffffffffffffff16815260200190815260200160002060008201518160000160006101000a81548173ffffffffffffffffffffffffffffffffffffffff021916908373ffffffffffffffffffffffffffffffffffffffff1602179055506020820151816001019081610b3f9190612e04565b5060408201518160020160006101000a81548160ff02191690836003811115610b6b57610b6a61292d565b5b02179055506060820151816003015590505060006003811115610b9157610b9061292d565b5b816003811115610ba457610ba361292d565b5b03610c8c576040518060400160405280604051806020016040528060008152508152602001600067ffffffffffffffff811115610be457610be3612517565b5b604051908082528060200260200182016040528015610c125781602001602082028036833780820191505090505b50815250600160003373ffffffffffffffffffffffffffffffffffffffff1673ffffffffffffffffffffffffffffffffffffffff1681526020019081526020016000206000820151816000019081610c6a9190612e04565b506020820151816001019080519060200190610c87929190612287565b509050505b60046000815480929190610c9f90612f05565b91905055505050565b60036020528160005260406000208181548110610cc457600080fd5b906000526020600020906004020160009150915050806000015490806001018054610cee90612a8e565b80601f0160208091040260200160405190810160405280929190818152602001828054610d1a90612a8e565b8015610d675780601f10610d3c57610100808354040283529160200191610d67565b820191906000526020600020905b815481529060010190602001808311610d4a57829003601f168201915b5050505050908060020154908060030154905084565b3073ffffffffffffffffffffffffffffffffffffffff163373ffffffffffffffffffffffffffffffffffffffff1614610deb576040517f08c379a0000000000000000000000000000000000000000000000000000000008152600401610de290612fbf565b60405180910390fd5b8060068190555050565b60026020528160005260406000208181548110610e1157600080fd5b906000526020600020906004020160009150915050806000015490806001018054610e3b90612a8e565b80601f0160208091040260200160405190810160405280929190818152602001828054610e6790612a8e565b8015610eb45780601f10610e8957610100808354040283529160200191610eb4565b820191906000526020600020905b815481529060010190602001808311610e9757829003601f168201915b5050505050908060020154908060030154905084565b60076020528060005260406000206000915090505481565b60006003811115610ef657610ef561292d565b5b6000803373ffffffffffffffffffffffffffffffffffffffff1673ffffffffffffffffffffffffffffffffffffffff16815260200190815260200160002060020160009054906101000a900460ff166003811115610f5757610f5661292d565b5b14610f97576040517f08c379a0000000000000000000000000000000000000000000000000000000008152600401610f8e90613051565b60405180910390fd5b80600160003373ffffffffffffffffffffffffffffffffffffffff1673ffffffffffffffffffffffffffffffffffffffff1681526020019081526020016000206000019081610fe69190612e04565b5050565b60006003811115610ffe57610ffd61292d565b5b6000803373ffffffffffffffffffffffffffffffffffffffff1673ffffffffffffffffffffffffffffffffffffffff16815260200190815260200160002060020160009054906101000a900460ff16600381111561105f5761105e61292d565b5b1461109f576040517f08c379a0000000000000000000000000000000000000000000000000000000008152600401611096906130bd565b60405180910390fd5b6000600360008573ffffffffffffffffffffffffffffffffffffffff1673ffffffffffffffffffffffffffffffffffffffff168152602001908152602001600020905060005b81805490508110156112b1578382828154811061110557611104612b51565b5b906000526020600020906004020160000154036112a457828282815481106111305761112f612b51565b5b9060005260206000209060040201600301541015611183576040517f08c379a000000000000000000000000000000000000000000000000000000000815260040161117a90613129565b60405180910390fd5b60008383838154811061119957611198612b51565b5b9060005260206000209060040201600201546111b59190613149565b9050803410156111fa576040517f08c379a00000000000000000000000000000000000000000000000000000000081526004016111f1906131d7565b60405180910390fd5b8383838154811061120e5761120d612b51565b5b9060005260206000209060040201600301600082825461122e91906131f7565b92505081905550600160003373ffffffffffffffffffffffffffffffffffffffff1673ffffffffffffffffffffffffffffffffffffffff168152602001908152602001600020600101859080600181540180825580915050600190039060005260206000200160009091909190915055506112b1565b80806001019150506110e5565b506040517f08c379a00000000000000000000000000000000000000000000000000000000081526004016112e490612bcc565b60405180910390fd5b600073ffffffffffffffffffffffffffffffffffffffff166000803373ffffffffffffffffffffffffffffffffffffffff1673ffffffffffffffffffffffffffffffffffffffff16815260200190815260200160002060000160009054906101000a900473ffffffffffffffffffffffffffffffffffffffff1673ffffffffffffffffffffffffffffffffffffffff16036113bd576040517f08c379a00000000000000000000000000000000000000000000000000000000081526004016113b490613277565b60405180910390fd5b806000803373ffffffffffffffffffffffffffffffffffffffff1673ffffffffffffffffffffffffffffffffffffffff168152602001908152602001600020600101908161140b9190612e04565b5050565b6003808111156114225761142161292d565b5b6000803373ffffffffffffffffffffffffffffffffffffffff1673ffffffffffffffffffffffffffffffffffffffff16815260200190815260200160002060020160009054906101000a900460ff1660038111156114835761148261292d565b5b146114c3576040517f08c379a00000000000000000000000000000000000000000000000000000000081526004016114ba90613309565b60405180910390fd5b6000600260003373ffffffffffffffffffffffffffffffffffffffff1673ffffffffffffffffffffffffffffffffffffffff168152602001908152602001600020905060005b81805490508110156115a4578482828154811061152957611528612b51565b5b90600052602060002090600402016000015403611597578382828154811061155457611553612b51565b5b9060005260206000209060040201600201819055508282828154811061157d5761157c612b51565b5b9060005260206000209060040201600301819055506115a4565b8080600101915050611509565b5050505050565b6060600060038111156115c1576115c061292d565b5b6000803373ffffffffffffffffffffffffffffffffffffffff1673ffffffffffffffffffffffffffffffffffffffff16815260200190815260200160002060020160009054906101000a900460ff1660038111156116225761162161292d565b5b14611662576040517f08c379a00000000000000000000000000000000000000000000000000000000081526004016116599061339b565b60405180910390fd5b600160003373ffffffffffffffffffffffffffffffffffffffff1673ffffffffffffffffffffffffffffffffffffffff1681526020019081526020016000206001018054806020026020016040519081016040528092919081815260200182805480156116ee57602002820191906000526020600020905b8154815260200190600101908083116116da575b5050505050905090565b60006020528060005260406000206000915090508060000160009054906101000a900473ffffffffffffffffffffffffffffffffffffffff169080600101805461174190612a8e565b80601f016020809104026020016040519081016040528092919081815260200182805461176d90612a8e565b80156117ba5780601f1061178f576101008083540402835291602001916117ba565b820191906000526020600020905b81548152906001019060200180831161179d57829003601f168201915b5050505050908060020160009054906101000a900460ff16908060030154905084565b600a81565b6003808111156117f5576117f461292d565b5b6000803373ffffffffffffffffffffffffffffffffffffffff1673ffffffffffffffffffffffffffffffffffffffff16815260200190815260200160002060020160009054906101000a900460ff1660038111156118565761185561292d565b5b14611896576040517f08c379a000000000000000000000000000000000000000000000000000000000815260040161188d90613407565b60405180910390fd5b60006005549050600260003373ffffffffffffffffffffffffffffffffffffffff1673ffffffffffffffffffffffffffffffffffffffff16815260200190815260200160002060405180608001604052808381526020018681526020018581526020018481525090806001815401808255809150506001900390600052602060002090600402016000909190919091506000820151816000015560208201518160010190816119459190612e04565b50604082015181600201556060820151816003015550506005600081548092919061196f90612f05565b919050555050505050565b6060600060038111156119905761198f61292d565b5b6000803373ffffffffffffffffffffffffffffffffffffffff1673ffffffffffffffffffffffffffffffffffffffff16815260200190815260200160002060020160009054906101000a900460ff1660038111156119f1576119f061292d565b5b14611a31576040517f08c379a0000000000000000000000000000000000000000000000000000000008152600401611a2890613499565b60405180910390fd5b600160003373ffffffffffffffffffffffffffffffffffffffff1673ffffffffffffffffffffffffffffffffffffffff1681526020019081526020016000206000018054611a7e90612a8e565b80601f0160208091040260200160405190810160405280929190818152602001828054611aaa90612a8e565b8015611af75780601f10611acc57610100808354040283529160200191611af7565b820191906000526020600020905b815481529060010190602001808311611ada57829003601f168201915b5050505050905090565b60026003811115611b1557611b1461292d565b5b6000803373ffffffffffffffffffffffffffffffffffffffff1673ffffffffffffffffffffffffffffffffffffffff16815260200190815260200160002060020160009054906101000a900460ff166003811115611b7657611b7561292d565b5b1480611bf4575060016003811115611b9157611b9061292d565b5b6000803373ffffffffffffffffffffffffffffffffffffffff1673ffffffffffffffffffffffffffffffffffffffff16815260200190815260200160002060020160009054906101000a900460ff166003811115611bf257611bf161292d565b5b145b611c33576040517f08c379a0000000000000000000000000000000000000000000000000000000008152600401611c2a9061352b565b60405180910390fd5b6000600260008573ffffffffffffffffffffffffffffffffffffffff1673ffffffffffffffffffffffffffffffffffffffff168152602001908152602001600020905060005b818054905081101561223f5783828281548110611c9957611c98612b51565b5b906000526020600020906004020160000154036122325782828281548110611cc457611cc3612b51565b5b9060005260206000209060040201600301541015611d17576040517f08c379a0000000000000000000000000000000000000000000000000000000008152600401611d0e90613129565b60405180910390fd5b60016003811115611d2b57611d2a61292d565b5b6000803373ffffffffffffffffffffffffffffffffffffffff1673ffffffffffffffffffffffffffffffffffffffff16815260200190815260200160002060020160009054906101000a900460ff166003811115611d8c57611d8b61292d565b5b0361203857600654600760003373ffffffffffffffffffffffffffffffffffffffff1673ffffffffffffffffffffffffffffffffffffffff1681526020019081526020016000205410611e14576040517f08c379a0000000000000000000000000000000000000000000000000000000008152600401611e0b90613597565b60405180910390fd5b600760003373ffffffffffffffffffffffffffffffffffffffff1673ffffffffffffffffffffffffffffffffffffffff1681526020019081526020016000206000815480929190611e6490612f05565b919050555082828281548110611e7d57611e7c612b51565b5b90600052602060002090600402016003016000828254611e9d91906131f7565b92505081905550600360003373ffffffffffffffffffffffffffffffffffffffff1673ffffffffffffffffffffffffffffffffffffffff1681526020019081526020016000206040518060800160405280868152602001848481548110611f0757611f06612b51565b5b90600052602060002090600402016001018054611f2390612a8e565b80601f0160208091040260200160405190810160405280929190818152602001828054611f4f90612a8e565b8015611f9c5780601f10611f7157610100808354040283529160200191611f9c565b820191906000526020600020905b815481529060010190602001808311611f7f57829003601f168201915b50505050508152602001848481548110611fb957611fb8612b51565b5b906000526020600020906004020160020154815260200185815250908060018154018082558091505060019003906000526020600020906004020160009091909190915060008201518160000155602082015181600101908161201c9190612e04565b506040820151816002015560608201518160030155505061222d565b60006064600a606461204a91906135b7565b84848154811061205d5761205c612b51565b5b9060005260206000209060040201600201546120799190613149565b612083919061361a565b90508383838154811061209957612098612b51565b5b906000526020600020906004020160030160008282546120b991906131f7565b92505081905550600360003373ffffffffffffffffffffffffffffffffffffffff1673ffffffffffffffffffffffffffffffffffffffff168152602001908152602001600020604051806080016040528087815260200185858154811061212357612122612b51565b5b9060005260206000209060040201600101805461213f90612a8e565b80601f016020809104026020016040519081016040528092919081815260200182805461216b90612a8e565b80156121b85780601f1061218d576101008083540402835291602001916121b8565b820191906000526020600020905b81548152906001019060200180831161219b57829003601f168201915b505050505081526020018381526020018681525090806001815401808255809150506001900390600052602060002090600402016000909190919091506000820151816000015560208201518160010190816122149190612e04565b5060408201518160020155606082015181600301555050505b61223f565b8080600101915050611c79565b506040517f08c379a000000000000000000000000000000000000000000000000000000000815260040161227290612bcc565b60405180910390fd5b60055481565b60065481565b8280548282559060005260206000209081019282156122c3579160200282015b828111156122c25782518255916020019190600101906122a7565b5b5090506122d091906122d4565b5090565b5b808211156122ed5760008160009055506001016122d5565b5090565b6000604051905090565b600080fd5b600080fd5b600073ffffffffffffffffffffffffffffffffffffffff82169050919050565b600061233082612305565b9050919050565b61234081612325565b811461234b57600080fd5b50565b60008135905061235d81612337565b92915050565b600060208284031215612379576123786122fb565b5b60006123878482850161234e565b91505092915050565b600081519050919050565b600082825260208201905092915050565b60005b838110156123ca5780820151818401526020810190506123af565b60008484015250505050565b6000601f19601f8301169050919050565b60006123f282612390565b6123fc818561239b565b935061240c8185602086016123ac565b612415816123d6565b840191505092915050565b6000602082019050818103600083015261243a81846123e7565b905092915050565b6000819050919050565b61245581612442565b811461246057600080fd5b50565b6000813590506124728161244c565b92915050565b60006020828403121561248e5761248d6122fb565b5b600061249c84828501612463565b91505092915050565b6124ae81612442565b82525050565b600060608201905081810360008301526124ce81866123e7565b90506124dd60208301856124a5565b6124ea60408301846124a5565b949350505050565b600060208201905061250760008301846124a5565b92915050565b600080fd5b600080fd5b7f4e487b7100000000000000000000000000000000000000000000000000000000600052604160045260246000fd5b61254f826123d6565b810181811067ffffffffffffffff8211171561256e5761256d612517565b5b80604052505050565b60006125816122f1565b905061258d8282612546565b919050565b600067ffffffffffffffff8211156125ad576125ac612517565b5b6125b6826123d6565b9050602081019050919050565b82818337600083830152505050565b60006125e56125e084612592565b612577565b90508281526020810184848401111561260157612600612512565b5b61260c8482856125c3565b509392505050565b600082601f8301126126295761262861250d565b5b81356126398482602086016125d2565b91505092915050565b6004811061264f57600080fd5b50565b60008135905061266181612642565b92915050565b6000806040838503121561267e5761267d6122fb565b5b600083013567ffffffffffffffff81111561269c5761269b612300565b5b6126a885828601612614565b92505060206126b985828601612652565b9150509250929050565b600080604083850312156126da576126d96122fb565b5b60006126e88582860161234e565b92505060206126f985828601612463565b9150509250929050565b600060808201905061271860008301876124a5565b818103602083015261272a81866123e7565b905061273960408301856124a5565b61274660608301846124a5565b95945050505050565b600060208284031215612765576127646122fb565b5b600082013567ffffffffffffffff81111561278357612782612300565b5b61278f84828501612614565b91505092915050565b6000806000606084860312156127b1576127b06122fb565b5b60006127bf8682870161234e565b93505060206127d086828701612463565b92505060406127e186828701612463565b9150509250925092565b600080600060608486031215612804576128036122fb565b5b600061281286828701612463565b935050602061282386828701612463565b925050604061283486828701612463565b9150509250925092565b600081519050919050565b600082825260208201905092915050565b6000819050602082019050919050565b61287381612442565b82525050565b6000612885838361286a565b60208301905092915050565b6000602082019050919050565b60006128a98261283e565b6128b38185612849565b93506128be8361285a565b8060005b838110156128ef5781516128d68882612879565b97506128e183612891565b9250506001810190506128c2565b5085935050505092915050565b60006020820190508181036000830152612916818461289e565b905092915050565b61292781612325565b82525050565b7f4e487b7100000000000000000000000000000000000000000000000000000000600052602160045260246000fd5b6004811061296d5761296c61292d565b5b50565b600081905061297e8261295c565b919050565b600061298e82612970565b9050919050565b61299e81612983565b82525050565b60006080820190506129b9600083018761291e565b81810360208301526129cb81866123e7565b90506129da6040830185612995565b6129e760608301846124a5565b95945050505050565b600080600060608486031215612a0957612a086122fb565b5b600084013567ffffffffffffffff811115612a2757612a26612300565b5b612a3386828701612614565b9350506020612a4486828701612463565b9250506040612a5586828701612463565b9150509250925092565b7f4e487b7100000000000000000000000000000000000000000000000000000000600052602260045260246000fd5b60006002820490506001821680612aa657607f821691505b602082108103612ab957612ab8612a5f565b5b50919050565b7f4f6e6c7920617574686f72697a65642075736572732063616e2076696577206d60008201527f65646963696e652064657461696c730000000000000000000000000000000000602082015250565b6000612b1b602f8361239b565b9150612b2682612abf565b604082019050919050565b60006020820190508181036000830152612b4a81612b0e565b9050919050565b7f4e487b7100000000000000000000000000000000000000000000000000000000600052603260045260246000fd5b7f4d65646963696e65206e6f7420666f756e640000000000000000000000000000600082015250565b6000612bb660128361239b565b9150612bc182612b80565b602082019050919050565b60006020820190508181036000830152612be581612ba9565b9050919050565b7f5573657220616c72656164792072656769737465726564000000000000000000600082015250565b6000612c2260178361239b565b9150612c2d82612bec565b602082019050919050565b60006020820190508181036000830152612c5181612c15565b9050919050565b60008190508160005260206000209050919050565b60006020601f8301049050919050565b600082821b905092915050565b600060088302612cba7fffffffffffffffffffffffffffffffffffffffffffffffffffffffffffffffff82612c7d565b612cc48683612c7d565b95508019841693508086168417925050509392505050565b6000819050919050565b6000612d01612cfc612cf784612442565b612cdc565b612442565b9050919050565b6000819050919050565b612d1b83612ce6565b612d2f612d2782612d08565b848454612c8a565b825550505050565b600090565b612d44612d37565b612d4f818484612d12565b505050565b5b81811015612d7357612d68600082612d3c565b600181019050612d55565b5050565b601f821115612db857612d8981612c58565b612d9284612c6d565b81016020851015612da1578190505b612db5612dad85612c6d565b830182612d54565b50505b505050565b600082821c905092915050565b6000612ddb60001984600802612dbd565b1980831691505092915050565b6000612df48383612dca565b9150826002028217905092915050565b612e0d82612390565b67ffffffffffffffff811115612e2657612e25612517565b5b612e308254612a8e565b612e3b828285612d77565b600060209050601f831160018114612e6e5760008415612e5c578287015190505b612e668582612de8565b865550612ece565b601f198416612e7c86612c58565b60005b82811015612ea457848901518255600182019150602085019450602081019050612e7f565b86831015612ec15784890151612ebd601f891682612dca565b8355505b6001600288020188555050505b505050505050565b7f4e487b7100000000000000000000000000000000000000000000000000000000600052601160045260246000fd5b6000612f1082612442565b91507fffffffffffffffffffffffffffffffffffffffffffffffffffffffffffffffff8203612f4257612f41612ed6565b5b600182019050919050565b7f4f6e6c7920636f6e7472616374206f776e65722063616e20736574206d61786960008201527f6d756d20686f73706974616c206f726465727300000000000000000000000000602082015250565b6000612fa960338361239b565b9150612fb482612f4d565b604082019050919050565b60006020820190508181036000830152612fd881612f9c565b9050919050565b7f4f6e6c792070617469656e74732063616e20757064617465206865616c74682060008201527f7265636f72647300000000000000000000000000000000000000000000000000602082015250565b600061303b60278361239b565b915061304682612fdf565b604082019050919050565b6000602082019050818103600083015261306a8161302e565b9050919050565b7f4f6e6c792070617469656e74732063616e20627579206d65646963696e650000600082015250565b60006130a7601e8361239b565b91506130b282613071565b602082019050919050565b600060208201905081810360008301526130d68161309a565b9050919050565b7f496e73756666696369656e74206d65646963696e65207175616e746974790000600082015250565b6000613113601e8361239b565b915061311e826130dd565b602082019050919050565b6000602082019050818103600083015261314281613106565b9050919050565b600061315482612442565b915061315f83612442565b925082820261316d81612442565b9150828204841483151761318457613183612ed6565b5b5092915050565b7f496e73756666696369656e74207061796d656e74000000000000000000000000600082015250565b60006131c160148361239b565b91506131cc8261318b565b602082019050919050565b600060208201905081810360008301526131f0816131b4565b9050919050565b600061320282612442565b915061320d83612442565b925082820390508181111561322557613224612ed6565b5b92915050565b7f55736572206e6f74207265676973746572656400000000000000000000000000600082015250565b600061326160138361239b565b915061326c8261322b565b602082019050919050565b6000602082019050818103600083015261329081613254565b9050919050565b7f4f6e6c7920737570706c696572732063616e20757064617465206d656469636960008201527f6e652064657461696c7300000000000000000000000000000000000000000000602082015250565b60006132f3602a8361239b565b91506132fe82613297565b604082019050919050565b60006020820190508181036000830152613322816132e6565b9050919050565b7f4f6e6c792070617469656e74732063616e20766965772070726573637269707460008201527f696f6e7300000000000000000000000000000000000000000000000000000000602082015250565b600061338560248361239b565b915061339082613329565b604082019050919050565b600060208201905081810360008301526133b481613378565b9050919050565b7f4f6e6c7920737570706c696572732063616e20616464206d65646963696e6500600082015250565b60006133f1601f8361239b565b91506133fc826133bb565b602082019050919050565b60006020820190508181036000830152613420816133e4565b9050919050565b7f4f6e6c792070617469656e74732063616e2076696577206865616c746820726560008201527f636f726473000000000000000000000000000000000000000000000000000000602082015250565b600061348360258361239b565b915061348e82613427565b604082019050919050565b600060208201905081810360008301526134b281613476565b9050919050565b7f4f6e6c7920706861726d616369657320616e6420686f73706974616c7320636160008201527f6e206f726465722066726f6d20737570706c6965727300000000000000000000602082015250565b600061351560368361239b565b9150613520826134b9565b604082019050919050565b6000602082019050818103600083015261354481613508565b9050919050565b7f4d6178696d756d20686f73706974616c206f7264657273207265616368656400600082015250565b6000613581601f8361239b565b915061358c8261354b565b602082019050919050565b600060208201905081810360008301526135b081613574565b9050919050565b60006135c282612442565b91506135cd83612442565b92508282019050808211156135e5576135e4612ed6565b5b92915050565b7f4e487b7100000000000000000000000000000000000000000000000000000000600052601260045260246000fd5b600061362582612442565b915061363083612442565b9250826136405761363f6135eb565b5b82820490509291505056fea264697066735822122000fbfa17ced3671615d6dffe855d89152508b2d19b00b5c4c0785336ecde635064736f6c63430008180033",
  "linkReferences": {},
  "deployedLinkReferences": {}
}