{
  "_format": "hh-sol-artifact-1",
  "contractName": "UserRegistry",
  "sourceName": "contracts/UserRegistry.sol",
  "abi": [
    {
      "anonymous": false,
      "inputs": [
        {
          "indexed": true,
          "internalType": "address",
          "name": "userAddress",
          "type": "address"
        },
        {
          "indexed": true,
          "internalType": "enum UserRegistry.Role",
          "name": "role",
          "type": "uint8"
        }
      ],
      "name": "UserRegistered",
      "type": "event"
    },
    {
      "inputs": [
        {
          "internalType": "bytes32",
          "name": "username",
          "type": "bytes32"
        },
        {
          "internalType": "bytes32",
          "name": "password",
          "type": "bytes32"
        }
      ],
      "name": "authenticate",
      "outputs": [
        {
          "internalType": "bool",
          "name": "",
          "type": "bool"
        }
      ],
      "stateMutability": "view",
      "type": "function"
    },
    {
      "inputs": [],
      "name": "hospitalFunction",
      "outputs": [],
      "stateMutability": "nonpayable",
      "type": "function"
    },
    {
      "inputs": [
        {
          "internalType": "enum UserRegistry.Role",
          "name": "role",
          "type": "uint8"
        }
      ],
      "name": "isUserOfRole",
      "outputs": [
        {
          "internalType": "bool",
          "name": "",
          "type": "bool"
        }
      ],
      "stateMutability": "view",
      "type": "function"
    },
    {
      "inputs": [
        {
          "internalType": "bytes32",
          "name": "username",
          "type": "bytes32"
        },
        {
          "internalType": "bytes32",
          "name": "password",
          "type": "bytes32"
        },
        {
          "internalType": "enum UserRegistry.Role",
          "name": "role",
          "type": "uint8"
        },
        {
          "internalType": "bytes",
          "name": "data",
          "type": "bytes"
        }
      ],
      "name": "register",
      "outputs": [],
      "stateMutability": "nonpayable",
      "type": "function"
    },
    {
      "inputs": [],
      "name": "retrieveOffchainData",
      "outputs": [
        {
          "internalType": "bytes",
          "name": "",
          "type": "bytes"
        }
      ],
      "stateMutability": "view",
      "type": "function"
    },
    {
      "inputs": [
        {
          "internalType": "bytes32",
          "name": "",
          "type": "bytes32"
        }
      ],
      "name": "usernameToAddress",
      "outputs": [
        {
          "internalType": "address",
          "name": "",
          "type": "address"
        }
      ],
      "stateMutability": "view",
      "type": "function"
    },
    {
      "inputs": [
        {
          "internalType": "address",
          "name": "",
          "type": "address"
        }
      ],
      "name": "users",
      "outputs": [
        {
          "internalType": "bytes32",
          "name": "username",
          "type": "bytes32"
        },
        {
          "internalType": "bytes32",
          "name": "passwordHash",
          "type": "bytes32"
        },
        {
          "internalType": "enum UserRegistry.Role",
          "name": "role",
          "type": "uint8"
        },
        {
          "internalType": "bytes32",
          "name": "offchainDataHash",
          "type": "bytes32"
        }
      ],
      "stateMutability": "view",
      "type": "function"
    }
  ],
  "bytecode": "0x608060405234801561001057600080fd5b50611331806100206000396000f3fe608060405234801561001057600080fd5b506004361061007d5760003560e01c806375c74caa1161005b57806375c74caa14610112578063a005363d14610130578063a87430ba1461013a578063db324cb21461016d5761007d565b806328ca7bec146100825780632fdf15d5146100b2578063518ac1b0146100e2575b600080fd5b61009c60048036038101906100979190610c85565b610189565b6040516100a99190611036565b60405180910390f35b6100cc60048036038101906100c79190610c5c565b610275565b6040516100d9919061101b565b60405180910390f35b6100fc60048036038101906100f79190610d41565b6102a8565b6040516101099190611036565b60405180910390f35b61011a6103f7565b6040516101279190611096565b60405180910390f35b61013861048d565b005b610154600480360381019061014f9190610c33565b61055e565b6040516101649493929190611051565b60405180910390f35b61018760048036038101906101829190610cc1565b61059b565b005b6000806001600085815260200190815260200160002060009054906101000a900473ffffffffffffffffffffffffffffffffffffffff169050600073ffffffffffffffffffffffffffffffffffffffff168173ffffffffffffffffffffffffffffffffffffffff16141561020157600091505061026f565b826040516020016102129190610fe7565b604051602081830303815290604052805190602001206000808373ffffffffffffffffffffffffffffffffffffffff1673ffffffffffffffffffffffffffffffffffffffff16815260200190815260200160002060010154149150505b92915050565b60016020528060005260406000206000915054906101000a900473ffffffffffffffffffffffffffffffffffffffff1681565b6000806000803373ffffffffffffffffffffffffffffffffffffffff1673ffffffffffffffffffffffffffffffffffffffff16815260200190815260200160002050602060ff161161032f576040517f08c379a0000000000000000000000000000000000000000000000000000000008152600401610326906110b8565b60405180910390fd5b816003811115610368577f4e487b7100000000000000000000000000000000000000000000000000000000600052602160045260246000fd5b6000803373ffffffffffffffffffffffffffffffffffffffff1673ffffffffffffffffffffffffffffffffffffffff16815260200190815260200160002060020160009054906101000a900460ff1660038111156103ef577f4e487b7100000000000000000000000000000000000000000000000000000000600052602160045260246000fd5b149050919050565b606060008060003373ffffffffffffffffffffffffffffffffffffffff1673ffffffffffffffffffffffffffffffffffffffff16815260200190815260200160002050602060ff161161047f576040517f08c379a0000000000000000000000000000000000000000000000000000000008152600401610476906110b8565b60405180910390fd5b61048833610b69565b905090565b60008060003373ffffffffffffffffffffffffffffffffffffffff1673ffffffffffffffffffffffffffffffffffffffff16815260200190815260200160002050602060ff1611610513576040517f08c379a000000000000000000000000000000000000000000000000000000000815260040161050a906110b8565b60405180910390fd5b61051d60016102a8565b61055c576040517f08c379a000000000000000000000000000000000000000000000000000000000815260040161055390611158565b60405180910390fd5b565b60006020528060005260406000206000915090508060000154908060010154908060020160009054906101000a900460ff16908060030154905084565b60008060003373ffffffffffffffffffffffffffffffffffffffff1673ffffffffffffffffffffffffffffffffffffffff16815260200190815260200160002050602060ff1614610621576040517f08c379a000000000000000000000000000000000000000000000000000000000815260040161061890611138565b60405180910390fd5b600073ffffffffffffffffffffffffffffffffffffffff166001600087815260200190815260200160002060009054906101000a900473ffffffffffffffffffffffffffffffffffffffff1673ffffffffffffffffffffffffffffffffffffffff16146106c3576040517f08c379a00000000000000000000000000000000000000000000000000000000081526004016106ba90611118565b60405180910390fd5b60008060038111156106fe577f4e487b7100000000000000000000000000000000000000000000000000000000600052602160045260246000fd5b846003811115610737577f4e487b7100000000000000000000000000000000000000000000000000000000600052602160045260246000fd5b14806107b3575060016003811115610778577f4e487b7100000000000000000000000000000000000000000000000000000000600052602160045260246000fd5b8460038111156107b1577f4e487b7100000000000000000000000000000000000000000000000000000000600052602160045260246000fd5b145b156107d75782826040516107c8929190611002565b60405180910390209050610936565b60026003811115610811577f4e487b7100000000000000000000000000000000000000000000000000000000600052602160045260246000fd5b84600381111561084a577f4e487b7100000000000000000000000000000000000000000000000000000000600052602160045260246000fd5b14806108c5575060038081111561088a577f4e487b7100000000000000000000000000000000000000000000000000000000600052602160045260246000fd5b8460038111156108c3577f4e487b7100000000000000000000000000000000000000000000000000000000600052602160045260246000fd5b145b156108fa5782826040516020016108dd929190611002565b604051602081830303815290604052805190602001209050610935565b6040517f08c379a000000000000000000000000000000000000000000000000000000000815260040161092c906110f8565b60405180910390fd5b5b6040518060800160405280878152602001866040516020016109589190610fe7565b6040516020818303038152906040528051906020012081526020018560038111156109ac577f4e487b7100000000000000000000000000000000000000000000000000000000600052602160045260246000fd5b8152602001828152506000803373ffffffffffffffffffffffffffffffffffffffff1673ffffffffffffffffffffffffffffffffffffffff168152602001908152602001600020600082015181600001556020820151816001015560408201518160020160006101000a81548160ff02191690836003811115610a58577f4e487b7100000000000000000000000000000000000000000000000000000000600052602160045260246000fd5b021790555060608201518160030155905050336001600088815260200190815260200160002060006101000a81548173ffffffffffffffffffffffffffffffffffffffff021916908373ffffffffffffffffffffffffffffffffffffffff160217905550610ae53382604051602001610ad19190610fe7565b604051602081830303815290604052610ba6565b836003811115610b1e577f4e487b7100000000000000000000000000000000000000000000000000000000600052602160045260246000fd5b3373ffffffffffffffffffffffffffffffffffffffff167f8e18574f8a7333e6a87112742a55853a643e2f0550f4e1a3a2c3f1bb2994441d60405160405180910390a3505050505050565b60606040517f08c379a0000000000000000000000000000000000000000000000000000000008152600401610b9d906110d8565b60405180910390fd5b5050565b600081359050610bb9816112bd565b92915050565b600081359050610bce816112d4565b92915050565b60008083601f840112610be657600080fd5b8235905067ffffffffffffffff811115610bff57600080fd5b602083019150836001820283011115610c1757600080fd5b9250929050565b600081359050610c2d816112eb565b92915050565b600060208284031215610c4557600080fd5b6000610c5384828501610baa565b91505092915050565b600060208284031215610c6e57600080fd5b6000610c7c84828501610bbf565b91505092915050565b60008060408385031215610c9857600080fd5b6000610ca685828601610bbf565b9250506020610cb785828601610bbf565b9150509250929050565b600080600080600060808688031215610cd957600080fd5b6000610ce788828901610bbf565b9550506020610cf888828901610bbf565b9450506040610d0988828901610c1e565b935050606086013567ffffffffffffffff811115610d2657600080fd5b610d3288828901610bd4565b92509250509295509295909350565b600060208284031215610d5357600080fd5b6000610d6184828501610c1e565b91505092915050565b610d73816111b0565b82525050565b610d82816111c2565b82525050565b610d91816111ce565b82525050565b610da8610da3826111ce565b61125f565b82525050565b6000610dba8385611194565b9350610dc783858461121d565b82840190509392505050565b6000610dde82611178565b610de88185611183565b9350610df881856020860161122c565b610e0181611298565b840191505092915050565b610e158161120b565b82525050565b6000610e2860138361119f565b91507f55736572206e6f742072656769737465726564000000000000000000000000006000830152602082019050919050565b6000610e6860388361119f565b91507f4e6f7420696d706c656d656e7465643a20557365206120736563757265206f6660008301527f662d636861696e2073746f7261676520736f6c7574696f6e00000000000000006020830152604082019050919050565b6000610ece600c8361119f565b91507f496e76616c696420726f6c6500000000000000000000000000000000000000006000830152602082019050919050565b6000610f0e60178361119f565b91507f557365726e616d6520616c7265616479206578697374730000000000000000006000830152602082019050919050565b6000610f4e60178361119f565b91507f5573657220616c726561647920726567697374657265640000000000000000006000830152602082019050919050565b6000610f8e60258361119f565b91507f4f6e6c7920686f73706974616c732063616e2063616c6c20746869732066756e60008301527f6374696f6e0000000000000000000000000000000000000000000000000000006020830152604082019050919050565b6000610ff38284610d97565b60208201915081905092915050565b600061100f828486610dae565b91508190509392505050565b60006020820190506110306000830184610d6a565b92915050565b600060208201905061104b6000830184610d79565b92915050565b60006080820190506110666000830187610d88565b6110736020830186610d88565b6110806040830185610e0c565b61108d6060830184610d88565b95945050505050565b600060208201905081810360008301526110b08184610dd3565b905092915050565b600060208201905081810360008301526110d181610e1b565b9050919050565b600060208201905081810360008301526110f181610e5b565b9050919050565b6000602082019050818103600083015261111181610ec1565b9050919050565b6000602082019050818103600083015261113181610f01565b9050919050565b6000602082019050818103600083015261115181610f41565b9050919050565b6000602082019050818103600083015261117181610f81565b9050919050565b600081519050919050565b600082825260208201905092915050565b600081905092915050565b600082825260208201905092915050565b60006111bb826111eb565b9050919050565b60008115159050919050565b6000819050919050565b60008190506111e6826112a9565b919050565b600073ffffffffffffffffffffffffffffffffffffffff82169050919050565b6000611216826111d8565b9050919050565b82818337600083830152505050565b60005b8381101561124a57808201518184015260208101905061122f565b83811115611259576000848401525b50505050565b6000819050919050565b7f4e487b7100000000000000000000000000000000000000000000000000000000600052602160045260246000fd5b6000601f19601f8301169050919050565b600481106112ba576112b9611269565b5b50565b6112c6816111b0565b81146112d157600080fd5b50565b6112dd816111ce565b81146112e857600080fd5b50565b600481106112f857600080fd5b5056fea2646970667358221220cc4508c80321a907bdc33be0a7e2bf5b4561020280241ca959bc4b6da339a6ca64736f6c63430008000033",
  "linkReferences": {},
  "deployedLinkReferences": {}
}