{
  "_format": "hh-sol-artifact-1",
  "contractName": "UserRegistry",
  "sourceName": "contracts/UserRegistry.sol",
  "abi": [
    {
      "anonymous": false,
      "inputs": [
        {
          "indexed": true,
          "internalType": "address",
          "name": "userAddress",
          "type": "address"
        },
        {
          "indexed": true,
          "internalType": "enum UserRegistry.Role",
          "name": "role",
          "type": "uint8"
        }
      ],
      "name": "UserRegistered",
      "type": "event"
    },
    {
      "inputs": [],
      "name": "hospitalFunction",
      "outputs": [],
      "stateMutability": "nonpayable",
      "type": "function"
    },
    {
      "inputs": [
        {
          "internalType": "enum UserRegistry.Role",
          "name": "role",
          "type": "uint8"
        }
      ],
      "name": "isUserOfRole",
      "outputs": [
        {
          "internalType": "bool",
          "name": "",
          "type": "bool"
        }
      ],
      "stateMutability": "view",
      "type": "function"
    },
    {
      "inputs": [
        {
          "internalType": "bytes32",
          "name": "username",
          "type": "bytes32"
        },
        {
          "internalType": "bytes32",
          "name": "password",
          "type": "bytes32"
        },
        {
          "internalType": "enum UserRegistry.Role",
          "name": "role",
          "type": "uint8"
        },
        {
          "internalType": "bytes",
          "name": "data",
          "type": "bytes"
        }
      ],
      "name": "register",
      "outputs": [],
      "stateMutability": "nonpayable",
      "type": "function"
    },
    {
      "inputs": [],
      "name": "retrieveOffchainData",
      "outputs": [
        {
          "internalType": "bytes",
          "name": "",
          "type": "bytes"
        }
      ],
      "stateMutability": "view",
      "type": "function"
    },
    {
      "inputs": [
        {
          "internalType": "address",
          "name": "",
          "type": "address"
        }
      ],
      "name": "users",
      "outputs": [
        {
          "internalType": "bytes32",
          "name": "username",
          "type": "bytes32"
        },
        {
          "internalType": "bytes32",
          "name": "passwordHash",
          "type": "bytes32"
        },
        {
          "internalType": "enum UserRegistry.Role",
          "name": "role",
          "type": "uint8"
        },
        {
          "internalType": "bytes32",
          "name": "offchainDataHash",
          "type": "bytes32"
        }
      ],
      "stateMutability": "view",
      "type": "function"
    }
  ],
  "bytecode": "0x608060405234801561001057600080fd5b50610e23806100206000396000f3fe608060405234801561001057600080fd5b50600436106100575760003560e01c8063518ac1b01461005c57806375c74caa1461008c578063a005363d146100aa578063a87430ba146100b4578063db324cb2146100e7575b600080fd5b61007660048036038101906100719190610752565b610103565b604051610083919061079a565b60405180910390f35b610094610206565b6040516100a19190610845565b60405180910390f35b6100b261029c565b005b6100ce60048036038101906100c991906108c5565b61036d565b6040516100de9493929190610982565b60405180910390f35b61010160048036038101906100fc9190610a58565b6103aa565b005b6000806000803373ffffffffffffffffffffffffffffffffffffffff1673ffffffffffffffffffffffffffffffffffffffff16815260200190815260200160002050602060ff161161018a576040517f08c379a000000000000000000000000000000000000000000000000000000000815260040161018190610b3d565b60405180910390fd5b81600381111561019d5761019c61090b565b5b6000803373ffffffffffffffffffffffffffffffffffffffff1673ffffffffffffffffffffffffffffffffffffffff16815260200190815260200160002060020160009054906101000a900460ff1660038111156101fe576101fd61090b565b5b149050919050565b606060008060003373ffffffffffffffffffffffffffffffffffffffff1673ffffffffffffffffffffffffffffffffffffffff16815260200190815260200160002050602060ff161161028e576040517f08c379a000000000000000000000000000000000000000000000000000000000815260040161028590610b3d565b60405180910390fd5b610297336106e2565b905090565b60008060003373ffffffffffffffffffffffffffffffffffffffff1673ffffffffffffffffffffffffffffffffffffffff16815260200190815260200160002050602060ff1611610322576040517f08c379a000000000000000000000000000000000000000000000000000000000815260040161031990610b3d565b60405180910390fd5b61032c6001610103565b61036b576040517f08c379a000000000000000000000000000000000000000000000000000000000815260040161036290610bcf565b60405180910390fd5b565b60006020528060005260406000206000915090508060000154908060010154908060020160009054906101000a900460ff16908060030154905084565b60008060003373ffffffffffffffffffffffffffffffffffffffff1673ffffffffffffffffffffffffffffffffffffffff16815260200190815260200160002050602060ff1614610430576040517f08c379a000000000000000000000000000000000000000000000000000000000815260040161042790610c3b565b60405180910390fd5b60008060038111156104455761044461090b565b5b8460038111156104585761045761090b565b5b14806104885750600160038111156104735761047261090b565b5b8460038111156104865761048561090b565b5b145b156104ac57828260405161049d929190610c9a565b60405180910390209050610573565b600260038111156104c0576104bf61090b565b5b8460038111156104d3576104d261090b565b5b148061050257506003808111156104ed576104ec61090b565b5b846003811115610500576104ff61090b565b5b145b1561053757828260405160200161051a929190610c9a565b604051602081830303815290604052805190602001209050610572565b6040517f08c379a000000000000000000000000000000000000000000000000000000000815260040161056990610cff565b60405180910390fd5b5b6040518060800160405280878152602001866040516020016105959190610d40565b6040516020818303038152906040528051906020012081526020018560038111156105c3576105c261090b565b5b8152602001828152506000803373ffffffffffffffffffffffffffffffffffffffff1673ffffffffffffffffffffffffffffffffffffffff168152602001908152602001600020600082015181600001556020820151816001015560408201518160020160006101000a81548160ff021916908360038111156106495761064861090b565b5b02179055506060820151816003015590505061068433826040516020016106709190610d40565b60405160208183030381529060405261071f565b8360038111156106975761069661090b565b5b3373ffffffffffffffffffffffffffffffffffffffff167f8e18574f8a7333e6a87112742a55853a643e2f0550f4e1a3a2c3f1bb2994441d60405160405180910390a3505050505050565b60606040517f08c379a000000000000000000000000000000000000000000000000000000000815260040161071690610dcd565b60405180910390fd5b5050565b600080fd5b600080fd5b6004811061073a57600080fd5b50565b60008135905061074c8161072d565b92915050565b60006020828403121561076857610767610723565b5b60006107768482850161073d565b91505092915050565b60008115159050919050565b6107948161077f565b82525050565b60006020820190506107af600083018461078b565b92915050565b600081519050919050565b600082825260208201905092915050565b60005b838110156107ef5780820151818401526020810190506107d4565b60008484015250505050565b6000601f19601f8301169050919050565b6000610817826107b5565b61082181856107c0565b93506108318185602086016107d1565b61083a816107fb565b840191505092915050565b6000602082019050818103600083015261085f818461080c565b905092915050565b600073ffffffffffffffffffffffffffffffffffffffff82169050919050565b600061089282610867565b9050919050565b6108a281610887565b81146108ad57600080fd5b50565b6000813590506108bf81610899565b92915050565b6000602082840312156108db576108da610723565b5b60006108e9848285016108b0565b91505092915050565b6000819050919050565b610905816108f2565b82525050565b7f4e487b7100000000000000000000000000000000000000000000000000000000600052602160045260246000fd5b6004811061094b5761094a61090b565b5b50565b600081905061095c8261093a565b919050565b600061096c8261094e565b9050919050565b61097c81610961565b82525050565b600060808201905061099760008301876108fc565b6109a460208301866108fc565b6109b16040830185610973565b6109be60608301846108fc565b95945050505050565b6109d0816108f2565b81146109db57600080fd5b50565b6000813590506109ed816109c7565b92915050565b600080fd5b600080fd5b600080fd5b60008083601f840112610a1857610a176109f3565b5b8235905067ffffffffffffffff811115610a3557610a346109f8565b5b602083019150836001820283011115610a5157610a506109fd565b5b9250929050565b600080600080600060808688031215610a7457610a73610723565b5b6000610a82888289016109de565b9550506020610a93888289016109de565b9450506040610aa48882890161073d565b935050606086013567ffffffffffffffff811115610ac557610ac4610728565b5b610ad188828901610a02565b92509250509295509295909350565b600082825260208201905092915050565b7f55736572206e6f74207265676973746572656400000000000000000000000000600082015250565b6000610b27601383610ae0565b9150610b3282610af1565b602082019050919050565b60006020820190508181036000830152610b5681610b1a565b9050919050565b7f4f6e6c7920686f73706974616c732063616e2063616c6c20746869732066756e60008201527f6374696f6e000000000000000000000000000000000000000000000000000000602082015250565b6000610bb9602583610ae0565b9150610bc482610b5d565b604082019050919050565b60006020820190508181036000830152610be881610bac565b9050919050565b7f5573657220616c72656164792072656769737465726564000000000000000000600082015250565b6000610c25601783610ae0565b9150610c3082610bef565b602082019050919050565b60006020820190508181036000830152610c5481610c18565b9050919050565b600081905092915050565b82818337600083830152505050565b6000610c818385610c5b565b9350610c8e838584610c66565b82840190509392505050565b6000610ca7828486610c75565b91508190509392505050565b7f496e76616c696420726f6c650000000000000000000000000000000000000000600082015250565b6000610ce9600c83610ae0565b9150610cf482610cb3565b602082019050919050565b60006020820190508181036000830152610d1881610cdc565b9050919050565b6000819050919050565b610d3a610d35826108f2565b610d1f565b82525050565b6000610d4c8284610d29565b60208201915081905092915050565b7f4e6f7420696d706c656d656e7465643a20557365206120736563757265206f6660008201527f662d636861696e2073746f7261676520736f6c7574696f6e0000000000000000602082015250565b6000610db7603883610ae0565b9150610dc282610d5b565b604082019050919050565b60006020820190508181036000830152610de681610daa565b905091905056fea2646970667358221220181097f21b02b161afffa71af78f04ed041026674b630a8dc8fc9e743cf46ee364736f6c63430008170033",
  "linkReferences": {},
  "deployedLinkReferences": {}
}